:100000000C9472000C9493000C9493000C94930045
:100010000C9493000C946C050C9426050C9493009E
:100020000C9493000C9493000C9493000C94930004
:100030000C9493000C9493000C9493000C949300F4
:100040000C9493000C9493000C9493000C949300E4
:100050000C9493000C9493000C9493000C949300D4
:100060000C9493000C9493000C9493000C949300C4
:100070000C9493000C9493000C9493000C949300B4
:100080000C9493000C9493000C9493000C949300A4
:100090000C9493000C9493000C9493000C94930094
:1000A0000C9493000C9493000C9493000C94930084
:1000B0000C9493000C9413040C9493000C949300F0
:1000C0000C9493000C9493000C9493000C94EB020A
:1000D0000C9493000C9493000C9493000C94930054
:1000E0000C94930011241FBECFEFD1E2DEBFCDBF31
:1000F00000E00CBF12E0A0E0B2E0ECEAF1E100E0C9
:100100000BBF02C007900D92A230B107D9F722E0D1
:10011000A2E0B2E001C01D92AA32B207E1F70E944C
:10012000B2050C94D4080C940000CF93DF93CDB7A4
:10013000DEB787E290E027E230E0F9012081286015
:10014000FC01208388E290E028E230E0F901208180
:10015000277FFC0120830000DF91CF910895CF938A
:10016000DF93CDB7DEB784E091E02FEFFC01208371
:1001700085E091E0FC0110820000DF91CF910895AD
:10018000CF93DF93CDB7DEB781E290E021E230E09C
:10019000F90120812F60FC01208382E290E022E2BD
:1001A00030E0F9012081207FFC0120838AE091E08A
:1001B0002AE031E0F90120812861FC0120838BE0F5
:1001C00091E02BE031E0F90120812861FC012083DE
:1001D0000000DF91CF910895CF93DF93CDB7DEB7C5
:1001E00080E390E0FC01108281E390E0FC0110824A
:1001F00087E091E0FC01108288E091E0FC01108230
:100200000000DF91CF910895CF93DF93CDB7DEB794
:100210008DE290E02DE230E0F90120812F7EFC019B
:1002200020838EE290E02EE230E0F901208120610F
:10023000FC0120830000DF91CF910895CF93DF93DD
:10024000CDB7DEB78DE290E02DE230E0F9012081FC
:100250002F7DFC0120838EE290E02EE230E0F90158
:1002600020812062FC0120830000DF91CF9108955E
:10027000CF93DF93CDB7DEB78DE290E02DE230E093
:10028000F90120812F77FC0120838EE290E02EE29D
:1002900030E0F90120812068FC0120830000DF911B
:1002A000CF910895CF93DF93CDB7DEB70E94C00002
:1002B0000E9404010E941E010E9495000E94AF004E
:1002C0000E94EC000E9438010000DF91CF91089558
:1002D000CF93DF93CDB7DEB78AE790E0FC011082C1
:1002E0008BE790E0FC0110828CE790E020E2FC01BB
:1002F000208380E590E020E8FC0120838AE790E0FD
:1003000026E8FC0120830000DF91CF910895CF9370
:10031000DF931F921F92CDB7DEB78A838A81883020
:1003200028F08BE790E028E0FC0120838A81877029
:100330008A838CE790E02A812062FC0120838AE78F
:1003400090E02AE730E0F90120812064FC0120835D
:1003500000008AE790E0FC018081882F90E08071A6
:100360009927892BB1F389E790E0FC01808189838B
:100370008AE790E02AE730E0F90120812061FC0162
:1003800020838BE790E0FC01108289810F900F9011
:10039000DF91CF910895CF93DF93CDB7DEB7279745
:1003A0000FB6F894DEBF0FBECDBF8F838F81882F2D
:1003B00090E0092E000CAA0BBB0BBC01CD010E94E2
:1003C000B707DC01CB012BED34EA42EA5AE3BC016A
:1003D000CD010E946708DC01CB012AE037ED43EA3A
:1003E0005BE3BC01CD010E949C06DC01CB019C01BA
:1003F000AD0160E070E080E89FE30E940D07DC0142
:10040000CB0120E030E040E251E4BC01CD010E948C
:100410006708DC01CB01BC01CD010E947F07DC0134
:10042000CB01092E000CAA0BBB0BBC01CD010E9415
:10043000B707DC01CB018B839C83AD83BE836B81CB
:100440007C818D819E810E947F07DC01CB019A8394
:10045000898389819A818132934020F080E293E000
:100460009A83898389819A8127960FB6F894DEBF93
:100470000FBECDBFDF91CF910895CF93DF93CDB75E
:10048000DEB7F8948AE690E02AE630E0F9012081B0
:100490002260FC0120838DE390E02DE330E0F90140
:1004A00020812061FC01208378940000DF91CF91AE
:1004B0000895CF93DF93CDB7DEB7F8948AE690E046
:1004C0002AE630E0F90120812860FC0120838DE3D9
:1004D00090E02DE330E0F90120812062FC012083CF
:1004E00078940000DF91CF910895CF93DF93CDB73B
:1004F000DEB781E291E0FC01108285E291E02FEF0E
:10050000FC01208384E291E021E0FC01208389E268
:1005100091E0FC01108288E291E02FEFFC01208342
:100520008BE291E0FC0110828AE291E02FEFFC0166
:1005300020838DE291E0FC0110828CE291E02FEFAC
:10054000FC01208380E291E029EAFC01208381E222
:1005500091E02BE0FC0120830000DF91CF91089512
:10056000CF93DF931F921F92CDB7DEB789836A8343
:1005700088E291E02981FC0120838AE291E02A81CE
:10058000FC01208300000F900F90DF91CF91089520
:10059000CF93DF93CDB7DEB781ED90E0FC01108201
:1005A00080ED90E0FC01108282ED90E026E0FC01FD
:1005B000208384ED90E02FE5FC01208385ED90E021
:1005C000FC01108281ED90E028E9FC01208300000D
:1005D000DF91CF9108951F920F9200905F000F92CC
:1005E000112400905B000F922F933F934F935F93E2
:1005F0006F937F938F939F93AF93BF93EF93FF93EB
:10060000CF93DF93CDB7DEB786ED90E0FC0180811C
:100610008093210280911402909115022091210271
:100620008D5D9D4FFC0120838091140290911502F5
:1006300001969093150280931402809123028134D5
:1006400021F01092150210921402209114023091A0
:1006500015028091000290910102281739070CF4CD
:1006600050C080912302813409F04BC010921502D2
:10067000109214029091260280912502692F0E9407
:10068000B00280912402883359F482E290E026E09F
:10069000FC01208381E08093030281E080930202C9
:1006A00080912402823349F482E290E029E0FC0147
:1006B000208310920302109202028091240284335C
:1006C00051F482E290E025E0FC01208310920302C5
:1006D00081E08093020280912402863351F482E209
:1006E00090E02AE0FC01208381E0809303021092D5
:1006F000020280912402853321F482E290E0FC0121
:1007000010820000DF91CF91FF91EF91BF91AF91E7
:100710009F918F917F916F915F914F913F912F9119
:100720000F9000925B000F9000925F000F901F905F
:100730001895CF93DF93CDB7DEB781EA90E0FC0147
:10074000108285EA90E027EFFC01208384EA90E0A4
:10075000FC01108289EA90E0FC01108288EA90E0B6
:10076000FC0110828BEA90E0FC0110828AEA90E0A2
:10077000FC0110828DEA90E0FC0110828CEA90E08E
:10078000FC01108287EA90E0FC01108286EA90E08A
:10079000FC01108280EA90E0FC01108282EA90E085
:1007A000FC01108281EA90E024E0FC01208300003B
:1007B000DF91CF910895CF93DF93CDB7DEB7F89453
:1007C0000E9452010E94C8020E9468010E947502A4
:1007D0000E94990382E790E021E0FC0120830E94BF
:1007E0003D020E94590278940000DF91CF91089554
:1007F000CF93DF931F92CDB7DEB78983000080EDE2
:1008000090E0FC018081882F90E080729927892BED
:10081000B1F386ED90E02981FC01208300000F9068
:10082000DF91CF9108951F920F9200905F000F9279
:10083000112400905B000F922F933F934F935F938F
:100840006F937F938F939F93AF93BF93EF93FF9398
:10085000CF93DF931F92CDB7DEB781EA90E0FC0122
:10086000108285EA90E027EFFC01208384EA90E083
:10087000FC01108281EA90E024E0FC01208381E405
:100880000E94F80380910C0290910D02A0910E023B
:10089000B0910F02BB2324F481509F4FAF4FBF4F45
:1008A000892F9A2FAB2FBB27A7FDBA950E94F8037B
:1008B00080910C0290910D02A0910E02B0910F0256
:1008C0009927AA27B078BB234CF40197A109B10955
:1008D0009F6FAF6FBF6F0196A11DB11D0E94F803FE
:1008E0008091040290910502A0910602B091070246
:1008F000BB2324F481509F4FAF4FBF4F892F9A2FB6
:10090000AB2FBB27A7FDBA950E94F8038091040284
:1009100090910502A0910602B09107029927AA279B
:10092000B078BB234CF40197A109B1099F6FAF6F59
:10093000BF6F0196A11DB11D0E94F80380910C02AA
:1009400090910D02A0910E02B0910F02BB2324F4EE
:1009500081509F4FAF4FBF4F892F9A2FAB2FBB278F
:10096000A7FDBA95282F80910C0290910D02A091BD
:100970000E02B0910F029927AA27B078BB234CF43E
:100980000197A109B1099F6FAF6FBF6F0196A11DBC
:10099000B11D280F8091040290910502A0910602DA
:1009A000B0910702BB2324F481509F4FAF4FBF4F3C
:1009B000892F9A2FAB2FBB27A7FDBA95280F8091BF
:1009C000040290910502A0910602B09107029927B6
:1009D000AA27B078BB234CF40197A109B1099F6FF6
:1009E000AF6FBF6F0196A11DB11D820F89838981F1
:1009F0000E94F8038EE00E948701882F90E09923DF
:100A000014F481509F4F892F990F990B0E94F8037E
:100A10008EE00E9487010E94F80300000F90DF9192
:100A2000CF91FF91EF91BF91AF919F918F917F9166
:100A30006F915F914F913F912F910F9000925B00CA
:100A40000F9000925F000F901F9018951F920F92C9
:100A500000905F000F9211248F939F93AF93BF93E9
:100A6000CF93DF93CDB7DEB7809102028130A1F43E
:100A700080910C0290910D02A0910E02B0910F0294
:100A80000196A11DB11D80930C0290930D02A093BD
:100A90000E02B0930F0213C080910C0290910D02D0
:100AA000A0910E02B0910F020197A109B1098093A4
:100AB0000C0290930D02A0930E02B0930F0200005F
:100AC000DF91CF91BF91AF919F918F910F90009245
:100AD0005F000F901F9018951F920F9200905F007B
:100AE0000F9211248F939F93AF93BF93CF93DF9374
:100AF000CDB7DEB7809103028130A1F4809104026A
:100B000090910502A0910602B09107020196A11DE5
:100B1000B11D8093040290930502A0930602B09346
:100B2000070213C08091040290910502A091060271
:100B3000B09107020197A109B10980930402909333
:100B40000502A0930602B09307020000DF91CF9147
:100B5000BF91AF919F918F910F9000925F000F9086
:100B60001F901895CF93DF93CDB7DEB70E94DB03BC
:100B700080E00E948701882F90E0092E000CAA0BCC
:100B8000BB0BBC01CD010E94B707DC01CB012DE3FB
:100B900035ED41EA5DE3BC01CD010E946708DC014F
:100BA000CB0123E333E343E35FE3BC01CD010E94C8
:100BB0009C06DC01CB0120E030E040E751E4BC01C1
:100BC000CD010E940D07DC01CB0180931D029093A3
:100BD0001E02A0931F02B093200280911D029091EB
:100BE0001E02A0911F02B091200220E030E040E000
:100BF0005FE3BC01CD010E940807882334F485E03F
:100C000091E020E8FC012083B3CF80911D029091F8
:100C10001E02A0911F02B09120022AE939E949E1A0
:100C20005FE3BC01CD010E940807882334F485E00E
:100C300091E020ECFC0120839BCF80911D029091DC
:100C40001E02A0911F02B091200226E636E646E27F
:100C50005FE3BC01CD010E940807882334F485E0DE
:100C600091E020EEFC01208383CF80911D029091C2
:100C70001E02A0911F02B091200223E333E343E35D
:100C80005FE3BC01CD010E940807882334F485E0AE
:100C900091E020EFFC0120836BCF80911D029091A9
:100CA0001E02A0911F02B091200220E030E040E43B
:100CB0005FE3BC01CD010E940807882334F485E07E
:100CC00091E028EFFC01208353CF80911D02909189
:100CD0001E02A0911F02B09120022DEC3CEC4CE4CE
:100CE0005FE3BC01CD010E940807882334F485E04E
:100CF00091E02CEFFC0120833BCF80911D0290916D
:100D00001E02A0911F02B09120022AE939E949E5AB
:100D10005FE3BC01CD010E940807882334F485E01D
:100D200091E02EEFFC01208323CF85E091E02FEFAF
:100D3000FC0120831DCF5058BB27AA270E94B30671
:100D40000C942D080E941F0838F00E94260820F0FD
:100D500039F49F3F19F426F40C941C080EF4E09526
:100D6000E7FB0C941608E92F0E943E0858F3BA17C7
:100D7000620773078407950720F079F4A6F50C94B1
:100D800060080EF4E0950B2EBA2FA02D0B01B901CF
:100D900090010C01CA01A0011124FF27591B99F0F1
:100DA000593F50F4503E68F11A16F040A22F232FFD
:100DB000342F4427585FF3CF469537952795A7954D
:100DC000F0405395C9F77EF41F16BA0B620B730BF4
:100DD000840BBAF09150A1F0FF0FBB1F661F771F65
:100DE000881FC2F70EC0BA0F621F731F841F48F41A
:100DF000879577956795B795F7959E3F08F0B0CFA3
:100E00009395880F08F09927EE0F97958795089589
:100E10000E94F20708F481E008950E9421070C94D3
:100E20002D080E94260858F00E941F0840F029F45F
:100E30005F3F29F00C94160851110C9461080C9432
:100E40001C080E943E0868F39923B1F3552391F3DF
:100E5000951B550BBB27AA2762177307840738F029
:100E60009F5F5F4F220F331F441FAA1FA9F335D086
:100E70000E2E3AF0E0E832D091505040E695001C3A
:100E8000CAF72BD0FE2F29D0660F771F881FBB1FF4
:100E9000261737074807AB07B0E809F0BB0B802DD2
:100EA000BF01FF2793585F4F3AF09E3F510578F0FE
:100EB0000C9416080C9461085F3FE4F3983ED4F359
:100EC000869577956795B795F7959F5FC9F7880FD2
:100ED000911D9695879597F90895E1E0660F771F24
:100EE000881FBB1F621773078407BA0720F0621BB5
:100EF000730B840BBA0BEE1F88F7E09508950E94E0
:100F000086076894B1110C94610808950E94460800
:100F100088F09F5798F0B92F9927B751B0F0E1F0BA
:100F2000660F771F881F991F1AF0BA95C9F714C06A
:100F3000B13091F00E946008B1E008950C9460080F
:100F4000672F782F8827B85F39F0B93FCCF38695A3
:100F500077956795B395D9F73EF490958095709500
:100F600061957F4F8F4F9F4F0895E89409C097FB7D
:100F70003EF490958095709561957F4F8F4F9F4F70
:100F80009923A9F0F92F96E9BB279395F6958795B4
:100F900077956795B795F111F8CFFAF4BB0F11F477
:100FA00060FF1BC06F5F7F4F8F4F9F4F16C088231E
:100FB00011F096E911C0772321F09EE8872F762F54
:100FC00005C0662371F096E8862F70E060E02AF095
:100FD0009A95660F771F881FDAF7880F9695879581
:100FE00097F90895990F0008550FAA0BE0E8FEEF56
:100FF00016161706E807F907C0F012161306E407DD
:10100000F50798F0621B730B840B950B39F40A26D5
:1010100061F0232B242B252B21F408950A2609F4B3
:10102000A140A6958FEF811D811D089597F99F67B7
:1010300080E870E060E008959FEF80EC0895002460
:101040000A941616170618060906089500240A942D
:1010500012161306140605060895092E0394000CB3
:1010600011F4882352F0BB0F40F4BF2B11F460FF42
:1010700004C06F5F7F4F8F4F9F4F089557FD90586B
:10108000440F551F59F05F3F71F04795880F97FB4C
:10109000991F61F09F3F79F0879508951216130606
:1010A0001406551FF2CF4695F1DF08C01616170635
:1010B0001806991FF1CF869571056105089408956A
:1010C000E894BB2766277727CB0197F908950E94FC
:1010D0007A080C942D080E941F0838F00E942608F8
:1010E00020F0952311F00C9416080C941C08112480
:1010F0000C9461080E943E0870F3959FC1F3950F10
:1011000050E0551F629FF001729FBB27F00DB11D8B
:10111000639FAA27F00DB11DAA1F649F6627B00D1B
:10112000A11D661F829F2227B00DA11D621F739F04
:10113000B00DA11D621F839FA00D611D221F749F12
:101140003327A00D611D231F849F600D211D822F59
:10115000762F6A2F11249F5750409AF0F1F0882380
:101160004AF0EE0FFF1FBB1F661F771F881F9150AD
:101170005040A9F79E3F510580F00C9416080C943E
:1011800061085F3FE4F3983ED4F3869577956795C1
:10119000B795F795E7959F5FC1F7FE2B880F911DD7
:0C11A0009695879597F90895F894FFCF75
:0211AC0004003D
:00000001FF
