:100000000C94B3000C94D4000C94D4000C94D40041
:100010000C94D4000C94AB050C9465050C94D4009E
:100020000C94D4000C94D4000C94D4000C94D40000
:100030000C94D4000C94D4000C94D4000C94D400F0
:100040000C94D4000C94D4000C94D4000C94D400E0
:100050000C94D4000C94D4000C94D4000C94D400D0
:100060000C94D4000C94D4000C94D4000C94D400C0
:100070000C94D4000C94D4000C94D4000C94D400B0
:100080000C94D4000C94D4000C94D4000C94D400A0
:100090000C94D4000C94D4000C94D4000C94D40090
:1000A0000C94D4000C94D4000C94D4000C94D40080
:1000B0000C94D4000C9452040C94D4000C94D400EE
:1000C0000C94D4000C94D4000C94D4000C942A0307
:1000D0000C94D4000C94D4000C94D4000C94D40050
:1000E0000C94D40007634236B79BD8A71A396856D8
:1000F00018AEBAAB558C1D3CB7CC5763BD6DEDFD4A
:10010000753EF6177231BF000000803F0800000006
:10011000BE922449123EABAAAA2ABECDCCCC4C3EFC
:1001200000000080BEABAAAAAA3E00000000BF00EB
:100130000000803F0000000000084178D3BB4387E7
:10014000D1133D190E3CC3BD4282AD2B3E68EC82FB
:1001500076BED98FE1A93E4C80EFFFBE01C4FF7F80
:100160003F000000000011241FBECFEFD1E2DEBF30
:10017000CDBF00E00CBF12E0A0E0B2E0E4EFF4E19C
:1001800000E00BBF02C007900D92A230B107D9F773
:1001900022E0A2E0B2E001C01D92AA32B207E1F76C
:1001A0000E94F1050C94780A0C940000CF93DF9321
:1001B000CDB7DEB787E290E027E230E0F901208199
:1001C0002860FC01208388E290E028E230E0F90119
:1001D0002081277FFC0120830000DF91CF910895CB
:1001E000CF93DF93CDB7DEB784E091E02FEFFC0132
:1001F000208385E091E0FC0110820000DF91CF9127
:100200000895CF93DF93CDB7DEB781E290E021E28E
:1002100030E0F90120812F60FC01208382E290E030
:1002200022E230E0F9012081207FFC0120838AE076
:1002300091E02AE031E0F90120812861FC0120836E
:100240008BE091E02BE031E0F90120812861FC0195
:1002500020830000DF91CF910895CF93DF93CDB736
:10026000DEB780E390E0FC01108281E390E0FC01C6
:10027000108287E091E0FC01108288E091E0FC01AF
:1002800010820000DF91CF910895CF93DF93CDB717
:10029000DEB78DE290E02DE230E0F90120812F7E83
:1002A000FC0120838EE290E02EE230E0F901208113
:1002B0002061FC0120830000DF91CF910895CF934E
:1002C000DF93CDB7DEB78DE290E02DE230E0F901AB
:1002D00020812F7DFC0120838EE290E02EE230E031
:1002E000F90120812062FC0120830000DF91CF9181
:1002F0000895CF93DF93CDB7DEB78DE290E02DE286
:1003000030E0F90120812F77FC0120838EE290E01C
:100310002EE230E0F90120812068FC0120830000FA
:10032000DF91CF910895CF93DF93CDB7DEB70E94D1
:1003300001010E9445010E945F010E94D6000E94B7
:10034000F0000E942D010E9479010000DF91CF9101
:100350000895CF93DF93CDB7DEB78AE790E0FC0135
:1003600010828BE790E0FC0110828CE790E020E2A5
:10037000FC01208380E590E020E8FC0120838AE7EF
:1003800090E026E8FC0120830000DF91CF910895E2
:10039000CF93DF931F921F92CDB7DEB78A838A81F6
:1003A000883028F08BE790E028E0FC0120838A81E8
:1003B00087708A838CE790E02A812062FC01208389
:1003C0008AE790E02AE730E0F90120812064FC010F
:1003D000208300008AE790E0FC018081882F90E074
:1003E00080719927892BB1F389E790E0FC01808126
:1003F00089838AE790E02AE730E0F90120812061D3
:10040000FC0120838BE790E0FC01108289810F9032
:100410000F90DF91CF910895CF93DF93CDB7DEB7E3
:1004200027970FB6F894DEBF0FBECDBF8F838F81A5
:10043000882F90E0A0E0B0E0BC01CD010E946707EA
:10044000DC01CB012FEE39EC43E95FE3BC01CD01C8
:100450000E948608DC01CB019C01AD0160E070E0E8
:1004600080E89FE30E94BF06DC01CB012AE939EF57
:100470004EE255E4BC01CD010E941908DC01CB011C
:1004800020E030E040E251E4BC01CD010E941908B7
:10049000DC01CB01BC01CD010E943107DC01CB01A5
:1004A000092E000CAA0BBB0BBC01CD010E946907F1
:1004B000DC01CB018B839C83AD83BE836B817C810C
:1004C0008D819E810E943107DC01CB019A83898353
:1004D00089819A818132934020F080E293E09A836F
:1004E000898389819A8127960FB6F894DEBF0FBE63
:1004F000CDBFDF91CF910895CF93DF93CDB7DEB716
:10050000F8948AE690E02AE630E0F9012081226042
:10051000FC0120838DE390E02DE330E0F9012081A0
:100520002061FC01208378940000DF91CF91089531
:10053000CF93DF93CDB7DEB7F8948AE690E02AE652
:1005400030E0F90120812860FC0120838DE390E0F8
:100550002DE330E0F90120812062FC0120837894B2
:100560000000DF91CF910895CF93DF93CDB7DEB731
:1005700081E291E0FC01108285E291E02FEFFC0125
:10058000208384E291E021E0FC01208389E291E074
:10059000FC01108288E291E02FEFFC0120838BE2C6
:1005A00091E0FC0110828AE291E02FEFFC012083B0
:1005B0008DE291E0FC0110828CE291E02FEFFC01D2
:1005C000208380E291E029EAFC01208381E291E02E
:1005D0002BE0FC0120830000DF91CF910895CF93A1
:1005E000DF931F921F92CDB7DEB789836A8388E2BB
:1005F00091E02981FC0120838AE291E02A81FC01BB
:10060000208300000F900F90DF91CF910895CF933A
:10061000DF93CDB7DEB781ED90E0FC01108280ED75
:1006200090E0FC01108282ED90E026E0FC01208346
:1006300084ED90E02FE5FC01208385ED90E0FC0146
:10064000108281ED90E028E9FC0120830000DF9119
:10065000CF9108951F920F9200905F000F92112486
:1006600000905B000F922F933F934F935F936F9394
:100670007F938F939F93AF93BF93EF93FF93CF930A
:10068000DF93CDB7DEB786ED90E0FC0180818093EB
:1006900021028091140290911502209121028D5D1A
:1006A0009D4FFC01208380911402909115020196C8
:1006B000909315028093140280912302813421F0DB
:1006C000109215021092140220911402309115021A
:1006D0008091000290910102281739070CF450C054
:1006E00080912302813409F04BC0109215021092C0
:1006F00014029091260280912502692F0E94EF0238
:1007000080912402883359F482E290E026E0FC01D3
:10071000208381E08093030281E080930202809134
:100720002402823349F482E290E029E0FC01208334
:10073000109203021092020280912402843351F439
:1007400082E290E025E0FC0120831092030281E028
:100750008093020280912402863351F482E290E079
:100760002AE0FC01208381E08093030210920202C0
:1007700080912402853321F482E290E0FC01108212
:100780000000DF91CF91FF91EF91BF91AF919F91C9
:100790008F917F916F915F914F913F912F910F902A
:1007A00000925B000F9000925F000F901F901895D1
:1007B000CF93DF93CDB7DEB781EA90E0FC011082E2
:1007C00085EA90E027EFFC01208384EA90E0FC01B9
:1007D000108289EA90E0FC01108288EA90E0FC0136
:1007E00010828BEA90E0FC0110828AEA90E0FC0122
:1007F00010828DEA90E0FC0110828CEA90E0FC010E
:10080000108287EA90E0FC01108286EA90E0FC0109
:10081000108280EA90E0FC01108282EA90E0FC0104
:10082000108281EA90E024E0FC0120830000DF9147
:10083000CF910895CF93DF93CDB7DEB7F8940E94A0
:1008400093010E9407030E94A9010E94B4020E9422
:10085000D80382E790E021E0FC0120830E947C0223
:100860000E94980278940000DF91CF910895CF9371
:10087000DF931F92CDB7DEB78983000080ED90E053
:10088000FC018081882F90E080729927892BB1F339
:1008900086ED90E02981FC01208300000F90DF911C
:1008A000CF9108951F920F9200905F000F92112434
:1008B00000905B000F922F933F934F935F936F9342
:1008C0007F938F939F93AF93BF93EF93FF93CF93B8
:1008D000DF931F92CDB7DEB781EA90E0FC01108272
:1008E00085EA90E027EFFC01208384EA90E0FC0198
:1008F000108281EA90E024E0FC01208381E40E94E0
:10090000370480910C0290910D02A0910E02B091DB
:100910000F02BB2324F481509F4FAF4FBF4F892F4D
:100920009A2FAB2FBB27A7FDBA950E943704809161
:100930000C0290910D02A0910E02B0910F02992726
:10094000AA27B078BB234CF40197A109B1099F6F86
:10095000AF6FBF6F0196A11DB11D0E94370480913A
:10096000040290910502A0910602B0910702BB23F8
:1009700024F481509F4FAF4FBF4F892F9A2FAB2F39
:10098000BB27A7FDBA950E9437048091040290917D
:100990000502A0910602B09107029927AA27B07814
:1009A000BB234CF40197A109B1099F6FAF6FBF6FD3
:1009B0000196A11DB11D0E9437048BE00E94C80161
:1009C00080932702809127020E940C0290932902B3
:1009D0008093280280912802909129020E94370476
:1009E00080910C0290910D02A0910E02B0910F0225
:1009F000BB2324F481509F4FAF4FBF4F892F9A2FB5
:100A0000AB2FBB27A7FDBA95282F80910C029091A0
:100A10000D02A0910E02B0910F029927AA27B0787B
:100A2000BB234CF40197A109B1099F6FAF6FBF6F52
:100A30000196A11DB11D280F80910402909105021D
:100A4000A0910602B0910702BB2324F481509F4F6E
:100A5000AF4FBF4F892F9A2FAB2FBB27A7FDBA955A
:100A6000280F8091040290910502A0910602B09196
:100A700007029927AA27B078BB234CF40197A10954
:100A8000B1099F6FAF6FBF6F0196A11DB11D820F9E
:100A9000898389810E94370400000F90DF91CF91F4
:100AA000FF91EF91BF91AF919F918F917F916F9146
:100AB0005F914F913F912F910F9000925B000F90AB
:100AC00000925F000F901F9018951F920F92009058
:100AD0005F000F9211248F939F93AF93BF93CF9397
:100AE000DF93CDB7DEB7809102028130A1F480910F
:100AF0000C0290910D02A0910E02B0910F0201968E
:100B0000A11DB11D80930C0290930D02A0930E02C3
:100B1000B0930F0213C080910C0290910D02A0912E
:100B20000E02B0910F020197A109B10980930C0246
:100B300090930D02A0930E02B0930F020000DF917C
:100B4000CF91BF91AF919F918F910F9000925F00D5
:100B50000F901F9018951F920F9200905F000F92B8
:100B600011248F939F93AF93BF93CF93DF93CDB710
:100B7000DEB7809103028130A1F48091040290914C
:100B80000502A0910602B09107020196A11DB11DB8
:100B90008093040290930502A0930602B09307028B
:100BA00013C08091040290910502A0910602B091B9
:100BB00007020197A109B1098093040290930502ED
:100BC000A0930602B09307020000DF91CF91BF917E
:100BD000AF919F918F910F9000925F000F901F90A7
:100BE0001895CF93DF93CDB7DEB70E941A0480E04B
:100BF0000E94C801882F90E0A0E0B0E0BC01CD01C8
:100C00000E946707DC01CB0180931D0290931E02B6
:100C1000A0931F02B093200280911D0290911E02AA
:100C2000A0911F02B09120022DEC3CEC4CE45EE35D
:100C3000BC01CD010E94BA06882334F485E091E01E
:100C400020E8FC012083D3CF80911D0290911E02E9
:100C5000A0911F02B09120022DEC3CEC4CEC5EE325
:100C6000BC01CD010E94BA06882334F485E091E0EE
:100C700020ECFC012083BBCF80911D0290911E02CD
:100C8000A0911F02B091200220E030E040E05FE33D
:100C9000BC01CD010E94BA06882334F485E091E0BE
:100CA00020EEFC012083A3CF80911D0290911E02B3
:100CB000A0911F02B09120022AE939E949E15FE3DE
:100CC000BC01CD010E94BA06882334F485E091E08E
:100CD00020EFFC0120838BCF80911D0290911E029A
:100CE000A0911F02B091200223E333E343E35FE3CB
:100CF000BC01CD010E94BA06882334F485E091E05E
:100D000028EFFC01208373CF80911D0290911E0279
:100D1000A0911F02B09120022DEC3CEC4CE45FE36B
:100D2000BC01CD010E94BA06882334F485E091E02D
:100D30002CEFFC0120835BCF80911D0290911E025D
:100D4000A0911F02B091200226E636E646E65FE358
:100D5000BC01CD010E94BA06882334F485E091E0FD
:100D60002EEFFC01208343CF85E091E02FEFFC01C3
:100D700020833DCF0E94A40708F481E008950E94DB
:100D8000D3060C94DF070E94D80758F00E94D107C1
:100D900040F029F45F3F29F00C94C80751110C94DE
:100DA00013080C94CE070E94F00768F39923B1F35F
:100DB000552391F3951B550BBB27AA276217730781
:100DC000840738F09F5F5F4F220F331F441FAA1F15
:100DD000A9F335D00E2E3AF0E0E832D091505040D1
:100DE000E695001CCAF72BD0FE2F29D0660F771F7F
:100DF000881FBB1F261737074807AB07B0E809F065
:100E0000BB0B802DBF01FF2793585F4F3AF09E3FE9
:100E1000510578F00C94C8070C9413085F3FE4F375
:100E2000983ED4F3869577956795B795F7959F5F2C
:100E3000C9F7880F911D9695879597F90895E1E078
:100E4000660F771F881FBB1F621773078407BA07D7
:100E500020F0621B730B840BBA0BEE1F88F7E09532
:100E600008950E9438076894B1110C9413080895EE
:100E70000E94F80788F09F5798F0B92F9927B7512B
:100E8000B0F0E1F0660F771F881F991F1AF0BA952E
:100E9000C9F714C0B13091F00E941208B1E0089572
:100EA0000C941208672F782F8827B85F39F0B93F64
:100EB000CCF3869577956795B395D9F73EF49095E1
:100EC0008095709561957F4F8F4F9F4F0895E8945F
:100ED00009C097FB3EF490958095709561957F4F82
:100EE0008F4F9F4F9923A9F0F92F96E9BB27939530
:100EF000F695879577956795B795F111F8CFFAF440
:100F0000BB0F11F460FF1BC06F5F7F4F8F4F9F4F70
:100F100016C0882311F096E911C0772321F09EE8CE
:100F2000872F762F05C0662371F096E8862F70E034
:100F300060E02AF09A95660F771F881FDAF7880F0E
:100F40009695879597F90895990F0008550FAA0B64
:100F5000E0E8FEEF16161706E807F907C0F01216CC
:100F60001306E407F50798F0621B730B840B950BCF
:100F700039F40A2661F0232B242B252B21F4089524
:100F80000A2609F4A140A6958FEF811D811D0895C1
:100F900097F99F6780E870E060E008959FEF80EC2C
:100FA000089500240A9416161706180609060895CF
:100FB00000240A9412161306140605060895092E35
:100FC0000394000C11F4882352F0BB0F40F4BF2BA4
:100FD00011F460FF04C06F5F7F4F8F4F9F4F0895E4
:100FE00057FD9058440F551F59F05F3F71F04795DA
:100FF000880F97FB991F61F09F3F79F087950895BF
:10100000121613061406551FF2CF4695F1DF08C0DD
:10101000161617061806991FF1CF869571056105FA
:1010200008940895E894BB2766277727CB0197F9A2
:1010300008950E942C080C94DF070E94D10738F015
:101040000E94D80720F0952311F00C94C8070C9447
:10105000CE0711240C9413080E94F00770F3959F9B
:10106000C1F3950F50E0551F629FF001729FBB279F
:10107000F00DB11D639FAA27F00DB11DAA1F649F3B
:101080006627B00DA11D661F829F2227B00DA11DEE
:10109000621F739FB00DA11D621F839FA00D611D74
:1010A000221F749F3327A00D611D231F849F600D95
:1010B000211D822F762F6A2F11249F5750409AF0BE
:1010C000F1F088234AF0EE0FFF1FBB1F661F771F4A
:1010D000881F91505040A9F79E3F510580F00C9415
:1010E000C8070C9413085F3FE4F3983ED4F3869549
:1010F00077956795B795F795E7959F5FC1F7FE2BB5
:10110000880F911D9695879597F90895FA01EE0F2E
:10111000FF1F309621053105A1F16115710561F4BC
:101120008038BFE39B0749F168949038810561F0EE
:101130008038BFEF9B0741F099234AF5FF3FE10557
:101140003105210519F1E8940894E795D901AA23FE
:1011500029F4AB2FBE2FF85FD0F310C0FF5F70F4FF
:10116000A695E0F7F73950F019F0FF3A38F49F7779
:101170009F930DD00F9007FC9058089546F00C9463
:10118000CE0760E070E080E89FE308954FE79F7727
:101190005F934F933F932F930E9481092F913F912B
:1011A0004F915F910E9419080C94DE0829F416F003
:1011B0000C94C8070C9412080C94CE070E94F807F0
:1011C000A8F39638A0F707F80F92E8942BE33AEAD1
:1011D00048EB5FE70E942F080F920F920F924DB7D6
:1011E0005EB70F920E94C909E4EEF0E00E94100978
:1011F0004F915F91EF91FF91E595EE1FFF1F49F031
:10120000FE57E0684427EE0F441FFA95E1F7419539
:10121000550B0E9443090F9007FE0C94370908955F
:10122000DF93CF931F930F93FF92EF92DF927B0197
:101230008C01689406C0DA2EEF010E942C08FE0192
:10124000E894A5912591359145915591A6F3EF012B
:101250000E94150AFE019701A801DA9469F7DF9050
:10126000EF90FF900F911F91CF91DF9108959B0117
:10127000AC0160E070E080E89FE30C94BF060C9442
:10128000C8070C946A0A0E94F807D8F39923C9F397
:10129000940F511DA3F39150504094F059F08823BE
:1012A00032F0660F771F881F91505040C1F79E3F64
:1012B00051052CF7880F911D9695879597F90895FC
:1012C0005F3FACF0983E9CF0BB278695779567957D
:1012D000B79508F4B1609395C1F7BB0F58F711F4B7
:1012E00060FFE8CF6F5F7F4F8F4F9F4FE3CF0C942E
:1012F000130816F00C946A0A0C94CE0768940C94A8
:10130000C8070E94F807A8F39923C1F3AEF3DF934F
:10131000CF931F930F93FF92C92FDD2788232AF0C5
:101320002197660F771F881FDAF720E030E040E84A
:101330005FEB9FE3883920F0803E38F021968F776D
:101340000E94FE09ECE0F1E004C00E94FE09E9E31E
:10135000F1E00E9410098B01BE01EC01FB2E6F57DA
:1013600071097595771F880B990B0E94690728E111
:1013700032E741E35FE30E942C08AF2D9801AE01F4
:10138000FF900F911F91CF91DF910E94150A0C944D
:10139000DF07FA01DC01AA0FBB1F9B01AC01BF579D
:1013A00028F4222733274427507820C0B75190F4DF
:1013B000AB2F0024469537952795011CA395D2F3B2
:1013C000002071F0220F331F441FB395DAF30ED0C3
:1013D0000C94FD0961307105A0E88A07B94630F424
:1013E0009B01AC016627772788279078309621F0FB
:1013F000208331834283538308955058BB27AA2703
:101400000E94150A0C94DF070E94D10738F00E9451
:10141000D80720F039F49F3F19F426F40C94CE0736
:101420000EF4E095E7FB0C94C807E92F0E94F00743
:1014300058F3BA17620773078407950720F079F409
:10144000A6F50C9412080EF4E0950B2EBA2FA02DE1
:101450000B01B90190010C01CA01A0011124FF2761
:10146000591B99F0593F50F4503E68F11A16F0405C
:10147000A22F232F342F4427585FF3CF469537955B
:101480002795A795F0405395C9F77EF41F16BA0B20
:10149000620B730B840BBAF09150A1F0FF0FBB1FCE
:1014A000661F771F881FC2F70EC0BA0F621F731F17
:1014B000841F48F4879577956795B795F7959E3F74
:1014C00008F0B0CF9395880F08F09927EE0F979505
:1014D000879508959F3F31F0915020F48795779537
:1014E0006795B795880F911D9695879597F90895FB
:0414F000F894FFCF9E
:0214F4000400F2
:00000001FF
